:100000000C942A000C943F000C943F000C943F0089
:100010000C943F000C943F000C943F000C943F0064
:100020000C943F000C943F000C943F000C943F0054
:100030000C943F000C943F000C943F000C943F0044
:100040000C943F000C943F000C943F000C943F0034
:100050000C943F0011241FBECFE5D8E0DEBFCDBF1A
:1000600010E0A0E6B0E0ECEAF5E002C005900D92E9
:10007000A838B107D9F70E94A9020C94D4020C94B5
:100080000000CF93DF93CDB7DEB7A3970FB6F894F8
:10009000DEBF0FBECDBF0E945D020E947A01CE017D
:1000A00001960E94B20000E056C0133499F01D334F
:1000B000C1F0CE0101960E94B800813011F40E9477
:1000C0005902612FCE0101960E94BF00812F0E942C
:1000D000000241C00E945902CE0101960E94B20066
:1000E0003AC0CE0101960E94B800811134C061E08F
:1000F0000E9449020CC0CE0101960E94D400E4E1A6
:10010000F0E0EC0FFD1FE00FF11D80830F5FCE01CB
:1001100001960E94B800882371F360E070E0CE0180
:1001200044960E94E60080910500813019F08230EB
:1001300051F011C080E690E00E941502CE010196B8
:100140000E94B20008C08DE690E00E941502CE0128
:1001500001960E94B2000E948B01182F8F3F09F078
:10016000A4CFF9CFFC01108A8FEF818B128A0895FA
:1001700021E0FC018289811120E0822F0895FC0199
:100180008289803181F091899F3011F49FEF918BAA
:1001900091899F5F918BDF01A90FB11D97FDBA95E2
:1001A0006C938F5F828B0895FC01808991E0980F9A
:1001B000908BDF01A80FB11D87FDBA958C9190310E
:1001C00009F4108A92899150928B0895FF920F93AF
:1001D0001F93CF93DF9300D000D000D0CDB7DEB710
:1001E000DC01FB01118210821382128214821582BB
:1001F0008C91882379F090E09F5F292F30E0FD01FA
:10020000E20FF31F40814111F7CF8A32A9F08F32FC
:1002100021F412C020E030E090E02A0F3B1FF901EA
:1002200031978081282F2D7F2D3231F08A528230F4
:1002300018F0911105C043C081E0FB0185834EC0D9
:1002400040E030E06894FF24F2F803E012E051E06F
:100250002C91822F90E0C0970A97C8F4311109C001
:10026000E1E0F0E0EC0FFD1FE40FF11D20834F5F94
:10027000EFCF313049F4E4E0F0E0EC0FFD1FE40F84
:10028000F11D20834F5FE4CFFB015583E1CF2B327B
:1002900021F43F5FFB015483DBCF2D3221F43F5F1C
:1002A000FB011483D5CF2A3221F43F5FFB01048385
:1002B000CFCF2F3269F63F5FFB01F482C9CF8B01AC
:1002C000CE0101960E94AE02F80191838083CE0197
:1002D00004960E94AE02F8019383828326960FB69D
:1002E000F894DEBF0FBECDBFDF91CF911F910F916C
:1002F000FF900895A09AA19AA29AA39AA498A5986B
:10030000A698A798AC9AAD9AAE9AAF9AA89AA99ACD
:10031000AA9AAB9A0895E0E0A89AA99AAA9AAB9AE9
:10032000E13041F028F0E23039F0E33039F007C035
:10033000A89805C0A99803C0AA9801C0AB989C9B37
:100340001AC09D9B1AC09E9B1AC09F9B1AC01BC0BF
:100350009C9BFECF9D9BFCCF9E9BFACF9F9BF8CF93
:10036000F0E0EE0FFF1FEE0FFF1FE858FF4FE80F02
:10037000F11D8081089580E0EBCF81E0E9CF82E03C
:10038000E7CF83E0E5CFEF5FE43031F68FEF0895FC
:1003900080FF02C0DC9A01C0DC9881FF02C0DD9AB8
:1003A00001C0DD9882FF02C0DE9A01C0DE9883FFA3
:1003B00002C0DF9A01C0DF98C39A8FE697E10197E8
:1003C000F1F700C00000C3980895CF93C82FC298DA
:1003D000C19882958F700E94C8018BE291E00197CD
:1003E000F1F700C000008C2F0E94C801C3988FE66F
:1003F00097E10197F1F700C00000C39ACF910895EB
:10040000CF93C82FC298C19A82958F700E94C8015D
:100410008C2F0E94C801C3988FE697E10197F1F7EE
:1004200000C00000C39ACF910895EF92FF920F93FE
:100430001F93CF93FC012081222329F17C01FFEF40
:10044000EF1AFF0A8C01C1E006C0CF5F2FEFE21A5E
:10045000F20A0F5F1F4FC13161F480EC0E94E50189
:10046000F80180810E940002F70180818111EDCFA7
:100470000AC0F80180810E940002F7018081882370
:1004800011F0C13210F3CF911F910F91FF90EF90B7
:100490000895611106C0803158F480580E94E5012A
:1004A0000895613029F4803118F480540E94E501E8
:1004B000089581E00E94E5010895B99ABA9ABB9A1D
:1004C000D49AD59AD69AD79A2FE789EA93E0215001
:1004D00080409040E1F700C0000083E00E94C80126
:1004E0008FE295E70197F1F700C0000083E00E94DA
:1004F000C80187EB9BE00197F1F700C0000083E0A3
:100500000E94C80182E00E94C80188E20E94E501C1
:1005100087EB9BE00197F1F700C000008FE00E949D
:10052000E50187EB9BE00197F1F700C000000E9416
:1005300059028FE697E10197F1F700C0000086E0CD
:100540000E94E5018FE697E10197F1F700C00000F6
:1005500008950E94410080E090E00895FC01882702
:100560009927E89421912032E9F3293010F02E30B8
:10057000C8F32B3241F02D3239F4689404C00E9444
:10058000CC02820F911D219120532A30C0F31EF41A
:10059000909581959F4F08957AE0979F902D879F22
:0C05A000802D910D11240895F894FFCFD8
:1005AC0053796E746178204572726F72004D61746C
:1005BC0068204572726F72003738392F3435362AFD
:0805CC003132332D43303D2B89
:00000001FF
