S0180000414448414D5F43414C43554C41544F522E7372656368
S11300000C942A000C943F000C943F000C943F0085
S11300100C943F000C943F000C943F000C943F0060
S11300200C943F000C943F000C943F000C943F0050
S11300300C943F000C943F000C943F000C943F0040
S11300400C943F000C943F000C943F000C943F0030
S11300500C943F0011241FBECFE5D8E0DEBFCDBF16
S113006010E0A0E6B0E0E0E3F5E002C005900D92F8
S1130070A037B107D9F70E9491020C9496020C9410
S11300800000CF93DF93CDB7DEB7A3970FB6F894F4
S1130090DEBF0FBECDBF0E9445020E949601CE0175
S11300A001960E949A0000E03EC0133499F01D337B
S11300B0C1F0CE0101960E94A000813011F40E948B
S11300C04102612FCE0101960E94A700812F0E9458
S11300D01C0229C00E944102CE0101960E949A008E
S11300E022C0CE0101960E94A00081111CC061E0D3
S11300F00E9431020CC0CE0101960E94BC00E4E1D2
S1130100F0E0EC0FFD1FE00FF11D80830F5FCE01C7
S113011001960E94A000882371F360E070E0CE0194
S113012044960E94DB000E94A701182F8F3F09F01C
S1130130BCCFF9CFFC01108A8FEF818B128A08950E
S113014021E0FC018289811120E0822F0895FC01C5
S11301508289803181F091899F3011F49FEF918BD6
S113016091899F5F918BDF01A90FB11D97FDBA950E
S11301706C938F5F828B0895FC01808991E0980FC6
S1130180908BDF01A80FB11D87FDBA958C9190313A
S113019009F4108A92899150928B0895982F9D7F2B
S11301A09D3239F08A5291E0823008F090E0892F34
S11301B0089581E008959F92AF92BF92CF92DF920B
S11301C0EF92FF920F931F93CF93DF93CDB7DEB7D8
S11301D0E9970FB6F894DEBF0FBECDBF6C017B016B
S11301E0CE0101960E949A00CE0144960E949A0084
S11301F0CE0187960E949A00F70111821082138221
S1130200128214821582F6013081332309F475C0F9
S113021000E001C0012F11E0100F812F90E0F601E2
S1130220E80FF91F20812111F5CF3A3259F03F32FE
S113023049F0319780810E94CE00811103C01111D1
S113024005C062C081E0F70185835EC0560110E0FD
S11302500F5F1F4F0C0D1D1D99249394F50181917F
S11302605F010E94CE00882371F0F50180810E9415
S1130270CE00882341F0F50181810E94CE008823BD
S113028011F0F7019582A016B10641F731C000E0E4
S11302900F2EF3E0BF2EF02DF6011081812F90E098
S11302A0C0970A9798F4011106C0612FCE010196F8
S11302B00E94A700F1CF013031F4612FCE014496A2
S11302C00E94A700E9CFF701B582E6CF812F0E94F3
S11302D0CE00882309F3F601818190E0C0970A9744
S11302E0D8F6612FCE0187960E94A7000F5FD4CF66
S11302F0F7018581813059F607C0F6013197808175
S11303000E94CE0081119ECFE9960FB6F894DEBF0D
S11303100FBECDBFDF91CF911F910F91FF90EF9052
S1130320DF90CF90BF90AF909F900895A09AA19A2C
S1130330A29AA39AA498A598A698A798AC9AAD9ABD
S1130340AE9AAF9AA89AA99AAA9AAB9A0895E0E0AD
S1130350A89AA99AAA9AAB9AE13041F028F0E2301F
S113036039F0E33039F007C0A89805C0A99803C054
S1130370AA9801C0AB989C9B1AC09D9B1AC09E9BD7
S11303801AC09F9B1AC01BC09C9BFECF9D9BFCCF99
S11303909E9BFACF9F9BF8CFF0E0EE0FFF1FEE0F6E
S11303A0FF1FE05AFF4FE80FF11D8081089580E0A0
S11303B0EBCF81E0E9CF82E0E7CF83E0E5CFEF5FE9
S11303C0E43031F68FEF089580FF02C0DC9A01C05B
S11303D0DC9881FF02C0DD9A01C0DD9882FF02C073
S11303E0DE9A01C0DE9883FF02C0DF9A01C0DF9865
S11303F0C39A8FE697E10197F1F700C00000C39814
S11304000895CF93C82FC298C19882958F700E9487
S1130410E4018BE291E00197F1F700C000008C2F1A
S11304200E94E401C3988FE697E10197F1F700C0B9
S11304300000C39ACF910895CF93C82FC298C19A50
S113044082958F700E94E4018C2F0E94E401C3986E
S11304508FE697E10197F1F700C00000C39ACF91AE
S11304600895611106C0803158F480580E94010239
S11304700895613029F4803118F480540E940102F7
S1130480089581E00E9401020895B99ABA9ABB9A2C
S1130490D49AD59AD69AD79A2FE789EA93E021502D
S11304A080409040E1F700C0000083E00E94E40136
S11304B08FE295E70197F1F700C0000083E00E9406
S11304C0E40187EB9BE00197F1F700C0000083E0B3
S11304D00E94E40182E00E94E40188E20E94010299
S11304E087EB9BE00197F1F700C000008FE00E94CA
S11304F0010287EB9BE00197F1F700C000000E9426
S113050041028FE697E10197F1F700C0000086E011
S11305100E9401028FE697E10197F1F700C0000005
S113052008950E94410080E090E00895F894FFCF80
S11305303738392F3435362A3132332D43303D2B79
S9030000FC
